:020000040800F2
:10000000B0050020A1010008231A00085B180008B1
:10001000211A0008F10200087D24000800000000F9
:10002000000000000000000000000000151D000896
:10003000F302000800000000251A0008311D000826
:10004000BB010008BB010008BB010008BB010008A0
:10005000BB010008BB010008BB010008BB01000890
:10006000BB010008BB010008BB010008BB01000880
:10007000BB010008BB010008BB010008BB01000870
:10008000BB010008BB010008BB010008BB01000860
:10009000BB010008BB010008BB010008BB01000850
:1000A000BB010008BB010008BB010008BB01000840
:1000B000BB010008BB010008BB010008BB01000830
:1000C000BB010008BB010008BB010008BB01000820
:1000D000BB010008592400086524000871240008A9
:1000E000BB010008BB010008BB010008BB01000800
:1000F000BB010008BB010008BB010008BB010008F0
:10010000BB010008BB010008BB010008BB010008DF
:10011000BB010008BB010008BB010008BB010008CF
:10012000BB010008BB010008BB010008BB010008BF
:10013000BB010008BB010008BB010008BB010008AF
:10014000BB010008BB010008BB010008BB0100089F
:10015000BB010008BB010008BB010008BB0100088F
:10016000BB010008BB010008BB010008BB0100087F
:10017000BB010008BB010008BB0100080000000033
:10018000BB010008BB010008DFF810D000F080F8C8
:1001900000480047BD240008AFF30080B0050020F0
:1001A0000648804706480047FEE7FEE7FEE7FEE711
:1001B000FEE7FEE7FEE7FEE7FEE7FEE7C51D0008F7
:1001C000890100082DE9F05F0546002092469B4614
:1001D00088460646814640241BE02846414647465D
:1001E000224600F044F853465A46C01A914110D3B3
:1001F00011461846224600F02BF82D1A67EB01082D
:100200004F4622460120002100F022F817EB00099A
:100210004E41201EA4F10104DFDC484631462A4647
:10022000434600F000B830BCBDE8C09FD2B201E048
:1002300000F8012B491EFBD270470022F6E710B5EB
:1002400013460A4604461946FFF7F0FF204610BD44
:10025000202A04DB203A00FA02F100207047914086
:10026000C2F1200320FA03F3194390407047202A7B
:1002700004DB203A21FA02F00021704721FA02F350
:10028000D040C2F120029140084319467047000057
:10029000064C074D06E0E06840F0010394E80700D3
:1002A00098471034AC42F6D3FFF772FFEC260008F3
:1002B0000C27000870B50C4D0446C0F14000A87032
:1002C00064230122A91C094801F036FA0A2000F033
:1002D00079F8C4F1BF00A87064230122A91CBDE80D
:1002E0007040024801F028BA0000002024000020DD
:1002F000FEE7704770B50B4D04464030A87064238C
:100300000122A91C084801F017FA0A2000F05AF847
:10031000C03464230122AC70A91CBDE870400248BF
:1003200001F00ABA000000202400002010B590F867
:1003300025100022022905D00421C16380F8242061
:10034000012010BD01680B6823F00E030B600168EB
:100350000B6823F001030B6090F84410046C01F06B
:100360001C03012101FA03F3636080F8251080F873
:100370002420104610BD10B590F825100024022945
:1003800003D00421C16301241AE001680A6822F045
:100390000E020A6001680A6822F001020A6090F801
:1003A0004410036C01F01C02012101FA02F25A60B0
:1003B00080F82510002180F82410816B01B1884756
:1003C000204610BD70B5044600F046F90546601C95
:1003D00002D004480078044400F03EF9401BA042DB
:1003E000FAD370BD140000202DE9F04FDFF83492ED
:1003F000002309F1040A012403250AF1040B87B044
:100400000F270BF1040E04E104FA03F632407CD00E
:10041000D1F804C0BCF1010F08D0BCF1020F05D027
:10042000BCF1110F02D0BCF1120F29D1D0F808C0D5
:10043000CDF800C04FEA430C05FA0CF8CDF80CC01B
:10044000DDF800C02CEA080CCDF800C0D1F80C8013
:10045000DDF80CC008FA0CF8DDF800C048EA0C081A
:10046000C0F80880D0F8048091F804C028EA060893
:10047000CCF3001C0CFA03FC4CEA080CC0F804C0D6
:10048000D1F804806FEA080C5FEA8C7C09D1D0F8BF
:100490002CC02CEA060CC8F3C0069E4046EA0C06A7
:1004A000C662D0F80CC04FEA430805FA08F62CEAF9
:1004B000060CCDF8148002968E6806FA08F646EA15
:1004C0000C06C6604E68022E01D0122E15D1DE0831
:1004D00000EB86060396366A4FEA437C4FEADC68F7
:1004E00007FA08FC26EA0C06D1F810C00CFA08FC42
:1004F0004CEA060C039EC6F820C00668DDF808C06A
:1005000026EA0C0691F804C000E081E0DDF81480D2
:100510000CF0030C0CFA08FC4CEA060CC0F800C006
:100520004E68F60074D5404ED6F860C04CF0010C11
:10053000C6F860C0366E23F0030C06F00106009684
:100540003A4E66440296D6F808C09E074FEA1678DF
:1005500007FA08F62CEA060CB0F1904F04D0344E9E
:10056000B04203D101261BE0002619E0314EB04213
:1005700001D1022614E0304EB04201D103260FE033
:100580002E4EB04201D104260AE02D4EB04201D1D8
:10059000052605E02B4EB04201D1062600E00726D5
:1005A00006FA08F646EA0C06DDF808C0CCF8086042
:1005B000D9F80060CC46D1F8048096435FEAC83889
:1005C00000D51643CCF80060DAF80060D446D1F8C4
:1005D000048096435FEA883800D51643CCF8006063
:1005E000DBF80060DC46D1F8048096435FEAC82857
:1005F00000D51643CCF80060DEF80060F446D1F870
:10060000048096435FEA882800D51643CCF8006042
:100610005B1C0A6832FA03F67FF4F6AE07B000F00E
:1006200013B8000000040140001002400000014027
:100630000004004800080048000C00480010004872
:10064000001400480018004830BCBDE8C08F0AB153
:10065000816170478162704701488068704700007F
:1006600014000020024881680278114481607047BC
:1006700014000020094810B50168002441F480717D
:100680000160032000F072F8002000F009F808B1C2
:10069000012401E000F026F8204610BD00200240B1
:1006A00070B50E4E05460024307898B14FF47A713B
:1006B000B1FBF0F00A490968B1FBF0F000F016FE5A
:1006C00040B9102D06D200222946501E00F02EF807
:1006D000756000E00124204670BD00001400002079
:1006E00020000020094808B5016E41F001010166B3
:1006F000016E01F001010091816D41F08051816531
:10070000806D00F08050009008BD00000010024095
:10071000002809DB00F01F02012191404009800000
:1007200000F1E020C0F8001170470000F0B40E4B5B
:100730001B680C46C3F30223C3F10705042D00D93F
:100740000425191D072901D2002300E0DB1E012624
:1007500006FA05F1491E214099409E40761E16403A
:100760003143F0BC01F08BBE0CED00E0064900F017
:10077000070208684FF6FF03184040EA0220034AC8
:1007800010430860704700000CED00E00000FA051F
:100790001649B0F5007F0868C0F3412009D002284F
:1007A00005D0086820F4C06040F480600860002034
:1007B00070470128FBD0086820F4C06040F4007046
:1007C00008600B483222006850430A4AB0FBF2F03E
:1007D000401C00E0401E4A69520501D50028F9D1AD
:1007E00048694005E3D503207047000000700040D1
:1007F0002000002040420F000248006800F4C06062
:1008000070470000007000402DE9F84F04460027B3
:100810000088E54D3E46010504F1200B1DD5606EB4
:1008200078B1B0F5800F11D0B0F5000F04D0B0F55D
:10083000400F22D001270FE0E86840F48030E860E4
:100840001BE00021201D01F0EFF803E000215846D5
:1008500001F080F9070010D03E462088C00426D55C
:10086000A06EC0B1B0F1807F1AD0B0F1007F0DD082
:10087000B0F1407F19D0012718E0D5F88800616EEB
:1008800020F440000843C5F88800E6E7E86840F433
:100890008030E86009E00021201D01F0C5F803E088
:1008A0000021584601F056F90746F7B13E46206848
:1008B00080033AD5A86D4FF00008C00009D4A86D98
:1008C00040F08050A865A86D4FF0010800F08050FE
:1008D0000090DFF8D8A2DAF8001041F48071CAF86D
:1008E0000010FFF7B9FE814610E0D5F88800A16E30
:1008F00020F040700843C5F88800D8E7FFF7ACFE49
:10090000A0EB0900022801D9032705E0DAF800006E
:10091000C005F3D5002F7CD04FEA0706B8F1000FD1
:1009200003D0A86D20F08050A8652078C00707D0BC
:10093000D5F88800A16B20F003000843C5F88800B3
:100940002078800707D5D5F88800E16B20F00C00EF
:100950000843C5F888002078400707D5D5F88800F7
:10096000216C20F030000843C5F88800207800078B
:1009700007D5D5F88800616C20F0C0000843C5F8A1
:1009800088002078C00607D5D5F88800A16C20F42F
:1009900040700843C5F888002078800607D5D5F850
:1009A0008800E16C20F440600843C5F88800208886
:1009B000800507D5D5F88800E16D20F44020084374
:1009C000C5F888002088400507D5D5F88800216E35
:1009D00020F440100843C5F888002078400607D569
:1009E000D5F88800216D20F440500843C5F88800F0
:1009F0002078000607D5D5F88800616D20F44040C6
:100A00000843C5F888002088C00509D5D5F88800B6
:100A100000E01CE0A16D20F440300843C5F88800D8
:100A200020884FF0006780044FF080684FD5D5F8DC
:100A30008800E16E20F040600843C5F88800E06E51
:100A4000B8423CD1E86840F48010E8603FE0D5F857
:100A5000900010F4407015D0D4F88410814211D069
:100A6000D5F89000D5F8901020F4407041F4803112
:100A7000C5F89010D5F8901021F48031C5F8901089
:100A8000C5F89000C00710D0FFF7E6FD074641F219
:100A9000883906E0FFF7E0FDC11B494501D903266F
:100AA0003CE7D5F890008007F4D5D5F89000D4F84D
:100AB000841020F440700843C5F890002EE74045AC
:100AC00005D10121201D00F0AFFF00B106462068CE
:100AD000000317D5D5F88800216F20F04060084347
:100AE000C5F88800206FB84204D1E86840F480104F
:100AF000E86007E0404505D10121201D00F094FF8A
:100B000000B106462068400317D5D5F88800616F0C
:100B100020F040600843C5F88800606FB84204D1F7
:100B2000E86840F48010E86007E0404505D1012105
:100B3000201D00F079FF00B10646208840041AD538
:100B4000D5F88800A16F20F040500843C5F8880010
:100B5000A06FB0F1805F03D0B0F1005F05D00AE074
:100B60000221201D00F060FF03E00221584600F042
:100B7000F1FF00B106462088000407D5D5F88800AB
:100B8000E16F20F080400843C5F888002068C0036A
:100B900007D555F8880FD4F8801020F0004008439E
:100BA0002860304600F004B8001002400070004099
:100BB00018BCBDE8E08F00002DE9F0470F460500A6
:100BC00058D0404E306800F00700B84209D2306873
:100BD00020F0070038433060306800F00700B8426A
:100BE00048D12878384CC0072CD06868032811D029
:100BF000022812D0216898B1490500293ADAA16883
:100C000021F003010143A160FFF726FD804641F278
:100C1000883910E021688901EFE721688903ECE752
:100C20008907EAE7FFF718FDA0EB0801494502D95B
:100C30000320BDE8F087A068696800F00C00B0EB05
:100C4000810FEFD12878800705D5A068A96820F02A
:100C5000F0000843A060306800F00700B8420BD9EC
:100C6000306820F0070038433060306800F007003B
:100C7000B84201D00120DCE72878400705D5A068FC
:100C8000E96820F4E0600843A0602878000706D5F2
:100C9000A068296920F4605040EAC100A06000F01B
:100CA0003FF8A168094AC1F30311515C01F01F012B
:100CB000C8400749086007480068BDE8F047FFF7EB
:100CC000EFBC00000020024000100240A4260008F3
:100CD00020000020180000200548064900688968A7
:100CE000054AC1F30221515C01F01F01C840704761
:100CF0002000002000100240E426000805480649B4
:100D000000688968054AC1F3C221515C01F01F01E6
:100D1000C84070472000002000100240E426000870
:100D200070B52549002318468A68CC6812F00C0279
:100D300004F00306214C4FEA640509D00C2A05D0C3
:100D4000042A32D0082A00D1284670BD012E10D1C5
:100D50000B681B0704D4D1F89430C3F3032302E0DB
:100D60000B68C3F30313164E56F82330DAB10C2A7E
:100D7000EBD1C86800F00300022818D0032818D06F
:100D80001846CA68CB68C2F30212C3F30623434372
:100D9000521CB3FBF2F2C868C0F34160401C400033
:100DA000B2FBF0F070BD184670BD204670BD204605
:100DB000E7E72846E5E70000001002400024F400C1
:100DC000B42600082DE9F84304006FD0FE4DA86852
:100DD00000F00C06E86800F003072078C00664D530
:100DE00076B10C2E01D1012F0AD0A0690028286805
:100DF0007AD040F001002860FFF72EFC80465DE0CD
:100E00002868800702D5A0690028DED0216A2868FA
:100E1000000703D5286800F0F00004E0D5F894003E
:100E2000F02202EA1010814216D9084600F016FF9F
:100E300000283BD1286840F0080028602868216A13
:100E400020F0F000084328606868E16920F47F40E2
:100E500040EA0120686016E0286840F00800286039
:100E60002868216A20F0F000084328606868E1697A
:100E700020F47F4040EA0120686026B9206A00F033
:100E8000EDFE0028D5D1FFF74BFFA968CF4AC1F38B
:100E90000311515C01F01F01C840CD490860CD48E5
:100EA0000068FFF7FDFB00287ED12EE0CAE000BFFE
:100EB000FFF7D2FBA0EB0800022876D8286880074D
:100EC000F6D5286840F0080028602868216A20F0DC
:100ED000F000084328606868E16920F47F4040EA38
:100EE0000120686011E0FFE720F001002860FFF7B3
:100EF000B3FB804606E000BFFFF7AEFBA0EB0800A7
:100F00000228DAD828688007F6D42078C00740D0B5
:100F1000082E18D00C2E01D1032F14D06068B0F524
:100F2000803F17D0B0F5A02F286817D020F480306C
:100F30002860286820F4802028606068E0B1FFF70E
:100F40008BFB804614E02868800322D56068002867
:100F500078D01EE0286840F48030EDE740F480202F
:100F60002860F7E7FFF778FBA0EB08006428A4D817
:100F700028688003F6D50CE0FFF76EFB804605E09D
:100F8000FFF76AFBA0EB0800642896D82868800366
:100F9000F6D4207880073BD5042E11D00C2E01D139
:100FA000022F0DD0E06801E092E1F1E0002828680E
:100FB0001ED040F480702860FFF74EFB07460CE01F
:100FC000286840050CD5E0680028C1D008E000BFC3
:100FD000FFF742FBC01B022893D828684005F7D5CD
:100FE0006868217C20F0F85040EA016068600FE0FA
:100FF00020F480702860FFF72FFB074605E000BF54
:10100000FFF72AFBC01B0228B1D828684005F7D497
:101010002078000729D560690028D5F8940012D0FF
:1010200040F00100C5F89400FFF716FB074604E006
:10103000FFF712FBC01B022899D8D5F8940080074F
:10104000F6D512E000E120F00100C5F89400FFF7AA
:1010500003FB074605E000BFFFF7FEFAC01B0228AE
:1010600085D8D5F894008007F6D42078400766D557
:10107000A86D0027C00008D4A86D40F08050A86576
:10108000A86D012700F08050009053480168C90501
:1010900012D40168814641F480710160FFF7DCFAE7
:1010A000804605E0FFF7D8FAA0EB080002286FD8C9
:1010B000D9F80000C005F5D5A068012816D005288C
:1010C000D5F8900017D020F00100C5F89000D5F8B1
:1010D000900020F0040000BFC5F89000A06841F225
:1010E0008839C0B1FFF7B8FA80460FE0D5F8900014
:1010F00040F00100F0E740F00400C5F89000F5E78B
:10110000FFF7AAFAA0EB0801494541D8D5F89000AD
:101110008007F5D50EE0FFF79FFA804606E000BF96
:10112000FFF79AFAA0EB0801494531D8D5F89000AD
:101130008007F5D41FB1A86D20F08050A865A06A83
:1011400038B302280AD00C2E7ED0286820F0807098
:101150002860286810F0205F77D0AAE0E868E26A8B
:1011600000F0030191422BD1216B00F070020901C4
:101170001039914224D1626B00F4FE41B1EB022F91
:101180001ED1A26B00F40031072A03D0012202E035
:101190009DE089E00022914212D1A18F00F4C002AB
:1011A00049084905A1F50011914209D194F8401070
:1011B00000F0C06049084906A1F1007181425CD08D
:1011C0000C2E41D0286809E000100240A426000837
:1011D00020000020180000200070004040017ED454
:1011E0002868C0007BD4286820F080702860FFF752
:1011F00033FA064605E000BFFFF72EFA801B0228EF
:1012000065D828688001F7D4D4E90B016FF00F028C
:1012100002EB01110843A18F5204490802EB41512E
:10122000626B41EA0221084394F840104FF07E427D
:10123000490802EB41610843A16B090940EA4140BA
:10124000E968284A114001E049E02EE00843E860DF
:10125000286840F080702860E86840F08070E8609E
:10126000FFF7FAF9044604E0FFF7F6F9001B02283D
:101270002DD828688001F7D52FE0286880012CD46C
:10128000286840F080702860E86840F08070E8606E
:10129000FFF7E2F9044604E0FFF7DEF9001B02283D
:1012A00015D828688001F7D517E0E86820F003001A
:1012B000E860E8680C490840E860FFF7CDF90446AB
:1012C00008E000BFFFF7C8F9001B022802D903207D
:1012D000BDE8F88328688001F4D40020F8E70120F5
:1012E000F6E700008C809DF9FFFFEEFE10B5401E72
:1012F000B0F1807F01D3012010BD4FF0E024606188
:101300000F21601701F0BBF80020A06107202061C9
:10131000002010BD70477047704700002DE9F04174
:1013200002680446D0691168936840F60F052842A8
:101330004FF0000505D1860678D58E0676D5616E0C
:10134000F3E0834F03F001060F4037437ED0C70719
:1013500009D0CF0507D501271762D4F8802042F0C5
:101360000102C4F8802082070AD5DA0708D027686E
:1013700002223A62D4F8802042F00402C4F88020AD
:1013800042070AD5DA0708D0236804221A62D4F883
:10139000802042F00202C4F8802002070CD501F040
:1013A0002002324308D0236808221A62D4F8802031
:1013B00042F00802C4F8802002050BD54A0109D585
:1013C00023684FF400621A62D4F8802042F02002B1
:1013D000C4F88020D4F88020002A2FD0800605D5BC
:1013E000880603D5616E09B120468847D4F880008D
:1013F00021688968490602D410F0280F20D02046C1
:1014000000F09AFD20688168490614D5816821F0B2
:1014100040018160206F70B14E498163206FFEF7FB
:10142000AAFF00280AD0206F816B01E00EE0204661
:10143000BDE8F04108472046FFF76EFFBDE8F081A8
:101440002046FFF769FFC4F88050F7E7276E202693
:10145000012F59D1C70657D5CF0655D51020106298
:101460002268906840062ED5216F08684068000405
:10147000000CE3D0B4F858308342DFD9A4F85A0006
:1014800008680068800617D4106820F48070106027
:101490002068816821F0010181602068816821F065
:1014A00040018160E66725662068016821F010012F
:1014B0000160206FFEF73AFFB4F85800B4F85A10F4
:1014C000401A81B21CE0B4F85800B4F85A10401A1F
:1014D00081B2B4F85A000028B0D00029AED010680C
:1014E00020F4907010602068826822F0010282600F
:1014F000E667256665662068026822F010020260D1
:101500002046FFF707FF99E7C70209D55B0207D519
:101510004FF4801010622046BDE8F041FFF7FBBE9B
:10152000030606D50B0604D5A16E00297FF47FAF14
:1015300084E7400682D5480680D5106820F0400038
:101540001060A6672046A56600F086F976E70000E1
:1015500020010004251F000810B5040002D0A06F70
:1015600010B107E0012010BD002084F8740020466F
:1015700000F026F82420A0672068016821F001010E
:101580000160204600F06CFD0128ECD0606A10B1CB
:10159000204600F035FC2068416821F4904141600C
:1015A0002068816821F02A0181602068016841F08B
:1015B000010101602046BDE8104000F085BC00003C
:1015C000F0B587B0044614216846FEF736FE3A4F60
:1015D0002668002239490223032407254FF0904052
:1015E000BE421FD10E6E46F480460E660E6E06F4A5
:1015F00080460596CE6C46F00106CE64C96C02AEFC
:1016000001F0010105916102CDE9001386E8340083
:101610006946FEF7E9FE002211462520FFF786F80D
:10162000252021E0264FBE4222D18E6D46F40036A1
:101630008E658E6D06F400360596CE6C46F001067A
:10164000CE64C96C02AE01F0010105910C21CDE917
:10165000001386E834006946FEF7C6FE00221146F4
:101660002620FFF763F82620FFF752F807B0F0BDF9
:1016700014488642FAD1886D40F480208865886DD0
:1016800000F480200590C86C40F00400C864C86C69
:1016900002AE00F0040005903020CDE9000386E89A
:1016A000340069460848FEF79FFE002211462720B5
:1016B000FFF73CF82720D7E7003801400010024030
:1016C00000440040004800400008004810B4C36FC8
:1016D000202B1BD1B9B1B2B190F87430012B15D0C9
:1016E000012380F8743000230366094C0368A34289
:1016F00006D05C68240203D51C6844F080641C603A
:1017000010BC00F0D1BD012010BC70470220FBE7E7
:101710000080004010B5012205490648FFF7D6FFBA
:1017200003480178C01E0278914200D0017010BDBC
:10173000030000202C0100202DE9F8430446806FAF
:101740001F4616460D4620284FD1CDB1C6B194F89C
:101750007400012849D0012084F874004FF000087B
:10176000C4F880802120A067FEF776FFA4F85060BF
:101770008146A4F85260A068B0F5805F03D004E011
:101780000120BDE8F883206928B12E465FF00005EE
:1017900084F8748010E00026FAE78021204600F0EB
:1017A00009FEB8B9C6B116F8010B21680885B4F86E
:1017B0005200401EA4F85200B4F852004B464FF0BD
:1017C000000200970028E8D14FF04001204600F0C9
:1017D000F1FD30B10320D4E735F8020BC0F3080067
:1017E000E3E72020A0670020CBE70220C9E7000044
:1017F000836F202B29D1B9B1B2B190F87430012B8D
:1018000023D0012380F87430C164A0F85020A0F8E0
:10181000522000218166C0F88010212282678268F0
:10182000B2F5805F02D003E001207047026952B137
:10183000074A826680F874100068016841F08001F0
:10184000016000207047034AF3E702207047000060
:1018500079230008392300087047FEE770B50C4D66
:101860000446C0F14000A87064230122A91C094865
:10187000FFF762FF0A20FEF7A5FDC03464230122B2
:10188000AC70A91CBDE870400248FFF755BF0000CE
:1018900000000020240000202DE9F04387B014212F
:1018A0006846FEF7CAFC3048C16C41F00401C164CF
:1018B000C16C01F004010591C16C41F08001C1646B
:1018C000C16C01F080010591C16C41F00101C1645E
:1018D000C16C01F001010591C16C41F00201C164CC
:1018E000C06C4FF4907500F00200AF050590002227
:1018F00029463846FEF7ABFEDFF870804FF4886665
:10190000002231464046FEF7A2FEDFF86490002236
:1019100080214846FEF79BFE4FF40050009015488A
:101920000024CDE9010469464846FEF75DFD0095B7
:101930000125CDE90154694638460394FEF754FD6C
:101940000096CDE90154694640460394FEF74CFDEC
:1019500080200090CDE90154694648460394FEF783
:1019600043FD07B0BDE8F0830010024000040048CA
:1019700000080048000021100C4810B50A49016019
:101980004FF416414160002181600C22C160C0E922
:1019900004128161C16101624162FFF7DDFD00282F
:1019A00001D072B6FEE710BD0038014024000020CF
:1019B0000C4810B50A4901604FF4E1314160002143
:1019C00081600C22C160C0E904128161C1610162C1
:1019D0004162FFF7C1FD002801D072B6FEE710BDDD
:1019E00000440040A80000200C4810B50A490160DE
:1019F0004FF4E1314160002181600C22C160C0E9F7
:101A000004128161C16101624162FFF7A5FD0028F6
:101A100001D072B6FEE710BD004800402C01002046
:101A2000FEE7FEE7704700002DE9F041444C054613
:101A30008846E0680026810728680DD0E16801F03B
:101A40000301814216D1A8B1E0686968C0F30210B1
:101A5000401C88420ED120E0012804D0022805D085
:101A6000032807D108E02168890701E021684905BA
:101A7000002907DB01265FE02168890302D4216881
:101A80004903F5E7E1686A686FF00F0321F073011D
:101A900003EB021211430143E160206820F08060F3
:101AA0002060FEF7D9FD074605E000BFFEF7D4FD34
:101AB000C01B022837D820680001F7D4B8F1000F06
:101AC00018D0B8F1010F1ED0287D4FF07E4140089C
:101AD00001EB4060A96840EA01202169194A1140E0
:101AE00008432061206840F080602060FEF7B4FD6C
:101AF00007461AE0A868E9680002090940EA41407F
:101B00002169114AEBE7288A1049400801EB40504F
:101B1000A96840EA012021690D4AE0E7FEF79CFD33
:101B2000C01B022801D9032606E020680001F5D574
:101B30002069A969084320613046BDE8F0810000B2
:101B400000100240FF80FFF9FF80FDFF0000E0FF72
:101B5000FF809FFF2DE9F0413D4C06468846E06836
:101B60000025810730680DD0E16801F00301814252
:101B700016D1A8B1E0687168C0F30210401C884219
:101B80000ED120E0012804D0022805D0032807D177
:101B900008E02168890701E021684905002907DB81
:101BA000012551E02168890302D421684903F5E742
:101BB000E16872686FF00F0321F0730103EB02120A
:101BC00011430143E160206820F080502060FEF75F
:101BD00043FD074605E000BFFEF73EFDC01B02289F
:101BE00029D820688000F7D4B8F1000F15D0307CD8
:101BF0004FF07E41400801EB4060B16840EA0120AF
:101C00006169144A114008436061206840F08050C7
:101C10002060FEF721FD07460FE0B068F168000282
:101C2000090940EA414061690B4AEBE7FEF714FD00
:101C3000C01B022801D9032506E020688000F5D5E5
:101C400060697169084360612846BDE8F081000061
:101C500000100240FF80FFF9FF80FDFFF8B51C4D2A
:101C600006460024A86DC00002D5FEF7C5FD0DE0B4
:101C7000A86D40F08050A865A86D00F080500090DD
:101C8000FEF7BAFDA96D21F08051A965B0F5007F7E
:101C900004D0802E07D94FF003040AE0802E08D923
:101CA000A02E01D804E001D1022402E0702E00D160
:101CB00001240848016821F0070121430160006800
:101CC00000F00700A04201D00120F8BD0020F8BDBF
:101CD000001002400020024070B50C4D0446403018
:101CE000A87064230122A91C0948FFF725FD0A20DA
:101CF000FEF768FBC4F1BF00A87064230122A91C91
:101D0000BDE870400248FFF717BD0000000000204A
:101D10002400002070470000034900200122887041
:101D2000891C0248FFF764BD000000202400002049
:101D3000FEF798BC30B5B9B0442122A8FEF77DFA71
:101D4000142133A8FEF779FA88216846FEF775FA60
:101D50000220C10125911021229026912C90012171
:101D6000CDE92D010725CDE930500A2132902F9180
:101D700022A8FFF727F808B172B6FEE70F2000246B
:101D800033900320CDE934043694042133A83794EA
:101D9000FEF712FF08B172B6FEE70F940E94684684
:101DA00000951094FEF730FD08B172B6FEE74FF4CF
:101DB0000070FEF7EDFC002801D072B6FEE739B0E6
:101DC00030BD00000B48016841F4700101600A4811
:101DD000016841F001010160002181600268074B48
:101DE0001A4002608214C260026822F480220260FB
:101DF0008161704788ED00E000100240FFFFF6EAC5
:101E000090F82410C90706D001684A68836A22F452
:101E100000321A434A6090F82410890706D50168F9
:101E20004A68C36A22F480321A434A6090F8241048
:101E3000490706D501684A68036B22F480221A43D9
:101E40004A6090F82410090706D501684A68436B78
:101E500022F400421A434A6090F82410C90606D5BD
:101E600001688A68836B22F480521A438A6090F872
:101E70002410890606D501688A68C36B22F40052D3
:101E80001A438A6090F82410490611D501684A68FF
:101E9000036C22F480121A434A60016CB1F5801F72
:101EA00006D101684A68436C22F4C0021A434A60B2
:101EB00090F82410090606D501684A68806C22F45F
:101EC000002202434A607047F8B500260446C0F875
:101ED0008060FEF7C1FB0546206800686FF07E4712
:101EE000000708D52B4600224FF40011204600972A
:101EF00000F060FA60B92068006840070AD52B46F8
:101F000000224FF480012046009700F053FA08B1F8
:101F10000320F8BD2020A067E067266684F874607F
:101F20000020F8BD10B5806A0021A0F85A10A0F872
:101F30005210FFF7F1F910BD01680A6822F490729F
:101F40000A6001688A6822F001028A60016E012934
:101F500004D101680A6822F010020A602021C167DA
:101F6000002101664166704770B5B0F85C10C26F21
:101F700004460068222A04D0018B41F00801018345
:101F800070BD808C626D08401080606D801C606543
:101F9000B4F85A00401EA4F85A00B4F85A000028B9
:101FA000EED12068016821F4907101602068816899
:101FB00021F0010181602020E06700256566206E28
:101FC000012804D02046FFF7A5FB256670BD2068D8
:101FD000016821F010010160B4F858102046FFF7A5
:101FE00099F9F2E770B5B0F85C10C26F044600686A
:101FF000222A04D0018B41F00801018370BD808C3E
:102000000840616D0870606D401C6065B4F85A004E
:10201000401EA4F85A00B4F85A000028EED12068F7
:10202000016821F4907101602068816821F001014C
:1020300081602020E06700256566206E012804D0BD
:102040002046FFF767FB256670BD2068016821F018
:1020500010010160B4F858102046FFF75BF9F2E771
:102060002DE9F0410446016880682269E369104364
:10207000626900251A431043814F0A68814B1A4058
:1020800002430A6020684168E26821F4405111432C
:1020900041602168A069B94201D0226A10438A6870
:1020A00022F4306202438A607749226877488A4284
:1020B0000DD1D0F8880010F0030006D0012866D0BA
:1020C000022854D0032851D163E001204FE0704929
:1020D0008A420BD1D0F8880010F00C0047D00428B9
:1020E00045D0082851D00C2840D152E069498A4295
:1020F0000BD1D0F8880010F0300038D0102846D02E
:10210000202842D0302831D143E063498A420BD1A4
:10211000D0F8880010F0C00029D0402837D080289F
:1021200033D0C02822D134E05C498A420ED1D0F8A5
:10213000880010F440701AD0B0F5807F27D0B0F539
:10214000007F22D0B0F5407F10D122E0BA420DD1FD
:10215000D0F8880010F4406009D0B0F5806F16D038
:10216000B0F5006F11D0B0F5406F12D010204C497F
:1021700000264FF40043BA422CD160B102280DD0A2
:1021800004280DD008286FD10EE00220EFE70420CC
:10219000EDE70820EBE7FEF79FFD03E00B4603E0C9
:1021A000FEF7BEFD030066D0626802EB4200984273
:1021B0005AD8B3EB023F57D8190E1B025008181813
:1021C00071410023FDF7FEFF364AA0F540719142B0
:1021D0004FD949E0E2694FF6EF779A4228D10928B2
:1021E00042D2DFE800F005080D41224141410E00D6
:1021F000FEF772FD01E0FEF781FD030001D13AE038
:102200000B466068590001EB5001B1FBF0F080B261
:10221000A0F11001B94227D84FF6F0710140C0F388
:10222000420001432068C16025E0FEF779FDE4E744
:10223000092819D2DFE800F005080D181A18181837
:102240000E00FEF749FD01E0FEF758FD030001D145
:1022500011E00B46606803EB5001B1FBF0F080B277
:10226000A0F11001B94204D9012504E0FEF758FDA0
:10227000ECE72168C86066662846A666BDE8F0817E
:1022800000800040F369FFEF003801400010024079
:102290000044004000480040004C00400050004016
:1022A0000024F400FFFC0F0030B54165A0F8582071
:1022B000A0F85A200022426681684FF48055FF231F
:1022C000A94204D1016921BB40F2FF1127E07F241C
:1022D000E9B1B1F1805F1FD0A0F85C20C0F8802088
:1022E0002221C16701688B6843F001038B6081681C
:1022F000A94201D10169C1B10D49416680F874203C
:102300000068016841F490710160002030BD0169EE
:1023100041B9A0F85C30E1E7016919B13F21A0F8AB
:102320005C10DBE7A0F85C40D8E70249E5E7000075
:10233000E51F0008691F0008816F212910D1B0F83E
:10234000521071B1C16C02680988C1F3080111858E
:10235000C16C891CC164B0F85210491EA0F852101B
:10236000704701680A6822F080020A60006801680C
:1023700041F0400101607047816F21290ED1B0F812
:10238000521061B1C16C026809781185C16C491C99
:10239000C164B0F85210491EA0F85210704701688D
:1023A0000A6822F080020A600068016841F040017A
:1023B000016070472DE9F0479A4617460E460446DD
:1023C0004FF000094FF02008089D39E0681C37D015
:1023D000FEF742F9A0EB0A00A84222D80DB320680C
:1023E000016849072CD5C069C043000528D421687D
:1023F0004FF4006008622068016821F4D071016028
:102400002068816821F001018160C4F87880C4F8F7
:102410007C80C4F8808000BF84F874900320BDE8FD
:10242000F0872068016821F4D0710160206881681C
:1024300021F001018160C4F87880C4F87C80EBE76A
:102440002068C06936EA000004D00020B842BDD040
:102450000020E4E70120F9E70148FEF75FBF000034
:10246000240000200148FEF759BF0000A80000200A
:102470000148FEF753BF00002C010020FEE70907CA
:10248000090E002804DB00F1E02080F800147047FA
:1024900000F00F0000F1E02080F8141D704702E00A
:1024A00008C8121F08C1002AFAD1704770470020DF
:1024B00001E001C1121F002AFBD17047FEF7DAF8D4
:1024C000FFF738FCFFF7E8F9FFF756FAFFF770FA65
:1024D000FFF78AFA01221E491E48FFF7F7F81C4C45
:1024E000E41E606830E06178207881421DD0532876
:1024F00001D1FFF711FC2078462802D12820FDF7F2
:10250000F9FE2078422802D12820FDF7D3FE20785A
:10251000522802D13F20FFF7DFFB20784C2802D160
:102520003F20FFF79BF9207860702078552804D170
:10253000FFF7F2FB606800F00FF820784428D2D152
:10254000FFF7EAFB6068404200F006F8CBE70000C6
:10255000030000202C01002070B500261A4C002832
:1025600002DA00BFC0F10000054603DD4FF00100B4
:10257000206022E021DA26601FE000BF4FF001005A
:10258000FDF720FF20680128606801D038B108E01D
:10259000401C6060A168884205D1666003E0A068C5
:1025A0006060401E606060686D1EC11700EB917135
:1025B00021F00301401A00F009F8002DDEDCBDE82F
:1025C000704000F04FB80000080000202DE9F041F5
:1025D0004FF48061214C224F8D104FF09046D0B1C6
:1025E00001281ED002282CD0032835D100222046F5
:1025F000FEF72DF8002229463046FEF728F8002283
:1026000080213846FEF723F801222046BDE8F0413C
:102610004021FEF71CB801222046FEF718F80022E0
:1026200014E000222046FEF712F800222946304628
:10263000FEF70DF8012280213846FEF708F8002247
:10264000E3E700222046FEF702F801222946304641
:10265000FDF7FDFF0022EEE7BDE8F0810004004831
:102660000008004810B50D4C00224FF48061204650
:10267000FDF7EDFF00224FF480714FF09040FDF721
:10268000E6FF002280210648FDF7E1FF20460022F8
:10269000BDE810404021FDF7DABF0000000400480B
:1026A00000080048000000000000000001020304D0
:1026B00006070809A0860100400D0300801A0600E5
:1026C00000350C0040420F0080841E0000093D00D0
:1026D00000127A000024F40000366E010048E80180
:1026E000006CDC0200000000010203040C2700085B
:1026F00000000020240000009E240008302700086D
:10270000240000208C050000AE2400085353000074
:10271000C80000000100000000000000C800000028
:1027200001000000100000000000000000093D0052
:040000050800018965
:00000001FF
